:100000000C9434000C9451000C9451000C94510049
:100010000C9451000C9451000C9451000C9451001C
:100020000C9451000C9451000C9451000C9451000C
:100030000C9451000C9451000C9451000C945100FC
:100040000C9451000C9451000C9451000C945100EC
:100050000C9451000C9451000C9451000C945100DC
:100060000C9451000C94510011241FBECFEFD8E026
:10007000DEBFCDBF21E0AEE0B1E001C01D92A431F2
:10008000B207E1F711E0A0E0B1E0E6E3F1E002C081
:1000900005900D92AE30B107D9F70E946C000C9418
:1000A00099000C9400008091C00087FFFCCF8091E4
:1000B000C60090E00895CF93C82F8A3019F48DE0E0
:1000C0000E945B008091C00085FFFCCFC093C600FA
:1000D00080E090E0CF9108951092C50087E680936C
:1000E000C4008091C0008D7F8093C00086E0809323
:1000F000C20088E18093C10080E091E090931101FB
:100100008093100190930F0180930E01209A219803
:10011000299A91E01999FECF85B1892785B92FEFEA
:1001200033EC89E0215030408040E1F700C000000E
:06013000F1CFF894FFCFAF
:0E01360000000003000000005B00530000000A
:00000001FF
