:100000000C9434000C9451000C9451000C94510049
:100010000C9451000C9451000C9451000C9451001C
:100020000C9451000C9451000C9451000C9451000C
:100030000C9451000C9451000C9451000C945100FC
:100040000C9451000C9451000C9451000C945100EC
:100050000C9451000C9451000C9451000C945100DC
:100060000C9451000C94510011241FBECFEFD8E026
:10007000DEBFCDBF21E0AEE0B1E001C01D92AB31EB
:10008000B207E1F711E0A0E0B1E0ECEDF1E002C071
:1000900005900D92AE30B107D9F70E94A1000C94E3
:1000A000EC000C940000262F27706830C0F08111FE
:1000B0000AC034B181E090E001C0880F2A95EAF7C8
:1000C000809583230AC0813011F534B181E090E03E
:1000D00001C0880F2A95EAF7832B84B9089581110E
:1000E0000AC03AB181E090E001C0880F2A95EAF792
:1000F000809583230AC0813051F43AB181E090E0C9
:1001000001C0880F2A95EAF7832B8AB908950895CC
:100110008091C00087FFFCCF8091C60090E00895D9
:10012000CF93C82F8A3019F48DE00E9490008091FF
:10013000C00085FFFCCFC093C60080E090E0CF9167
:1001400008951092C50087E68093C400E0ECF0E0CB
:1001500080818D7F808386E08093C20098E19093B8
:10016000C100E5E1F1E020E031E033832283318317
:10017000208394E09093140195E090931301809371
:10018000120187E08093110188E08093100189E0DB
:1001900080930F018AE080930E0164E081E00E9469
:1001A000530065E081E00E94530066E081E00E9418
:1001B000530067E081E00E94530068E081E00E9404
:1001C000530069E080E00E9453006AE081E00E94F1
:0C01D000530080E090E00895F894FFCF09
:0E01DC000000000300000000900088000000FA
:00000001FF
